{
  "_format": "hh-sol-artifact-1",
  "contractName": "NFTMarket",
  "sourceName": "contracts/Market.sol",
  "abi": [
    {
      "inputs": [],
      "stateMutability": "nonpayable",
      "type": "constructor"
    },
    {
      "anonymous": false,
      "inputs": [
        {
          "indexed": true,
          "internalType": "uint256",
          "name": "itemId",
          "type": "uint256"
        },
        {
          "indexed": true,
          "internalType": "address",
          "name": "nftContract",
          "type": "address"
        },
        {
          "indexed": true,
          "internalType": "uint256",
          "name": "tokenId",
          "type": "uint256"
        },
        {
          "indexed": false,
          "internalType": "address",
          "name": "seller",
          "type": "address"
        },
        {
          "indexed": false,
          "internalType": "address",
          "name": "owner",
          "type": "address"
        },
        {
          "indexed": false,
          "internalType": "uint256",
          "name": "price",
          "type": "uint256"
        },
        {
          "indexed": false,
          "internalType": "bool",
          "name": "sold",
          "type": "bool"
        }
      ],
      "name": "MarketItemCreated",
      "type": "event"
    },
    {
      "inputs": [
        {
          "internalType": "uint256",
          "name": "maxSupply",
          "type": "uint256"
        },
        {
          "internalType": "string",
          "name": "baseURI",
          "type": "string"
        },
        {
          "internalType": "address",
          "name": "_owner",
          "type": "address"
        },
        {
          "internalType": "string",
          "name": "_name",
          "type": "string"
        },
        {
          "internalType": "string",
          "name": "_symbol",
          "type": "string"
        }
      ],
      "name": "createCollection",
      "outputs": [],
      "stateMutability": "nonpayable",
      "type": "function"
    },
    {
      "inputs": [
        {
          "internalType": "address",
          "name": "nftContract",
          "type": "address"
        },
        {
          "internalType": "uint256",
          "name": "tokenId",
          "type": "uint256"
        },
        {
          "internalType": "uint256",
          "name": "price",
          "type": "uint256"
        }
      ],
      "name": "createMarketItem",
      "outputs": [],
      "stateMutability": "payable",
      "type": "function"
    },
    {
      "inputs": [
        {
          "internalType": "address",
          "name": "nftContract",
          "type": "address"
        },
        {
          "internalType": "uint256",
          "name": "itemId",
          "type": "uint256"
        }
      ],
      "name": "createMarketSale",
      "outputs": [],
      "stateMutability": "payable",
      "type": "function"
    },
    {
      "inputs": [],
      "name": "fetchItemsCreated",
      "outputs": [
        {
          "components": [
            {
              "internalType": "uint256",
              "name": "itemId",
              "type": "uint256"
            },
            {
              "internalType": "address",
              "name": "nftContract",
              "type": "address"
            },
            {
              "internalType": "uint256",
              "name": "tokenId",
              "type": "uint256"
            },
            {
              "internalType": "address payable",
              "name": "seller",
              "type": "address"
            },
            {
              "internalType": "address payable",
              "name": "owner",
              "type": "address"
            },
            {
              "internalType": "uint256",
              "name": "price",
              "type": "uint256"
            },
            {
              "internalType": "bool",
              "name": "sold",
              "type": "bool"
            }
          ],
          "internalType": "struct NFTMarket.MarketItem[]",
          "name": "",
          "type": "tuple[]"
        }
      ],
      "stateMutability": "view",
      "type": "function"
    },
    {
      "inputs": [],
      "name": "fetchMarketItems",
      "outputs": [
        {
          "components": [
            {
              "internalType": "uint256",
              "name": "itemId",
              "type": "uint256"
            },
            {
              "internalType": "address",
              "name": "nftContract",
              "type": "address"
            },
            {
              "internalType": "uint256",
              "name": "tokenId",
              "type": "uint256"
            },
            {
              "internalType": "address payable",
              "name": "seller",
              "type": "address"
            },
            {
              "internalType": "address payable",
              "name": "owner",
              "type": "address"
            },
            {
              "internalType": "uint256",
              "name": "price",
              "type": "uint256"
            },
            {
              "internalType": "bool",
              "name": "sold",
              "type": "bool"
            }
          ],
          "internalType": "struct NFTMarket.MarketItem[]",
          "name": "",
          "type": "tuple[]"
        }
      ],
      "stateMutability": "view",
      "type": "function"
    },
    {
      "inputs": [],
      "name": "fetchMyNFTs",
      "outputs": [
        {
          "components": [
            {
              "internalType": "uint256",
              "name": "itemId",
              "type": "uint256"
            },
            {
              "internalType": "address",
              "name": "nftContract",
              "type": "address"
            },
            {
              "internalType": "uint256",
              "name": "tokenId",
              "type": "uint256"
            },
            {
              "internalType": "address payable",
              "name": "seller",
              "type": "address"
            },
            {
              "internalType": "address payable",
              "name": "owner",
              "type": "address"
            },
            {
              "internalType": "uint256",
              "name": "price",
              "type": "uint256"
            },
            {
              "internalType": "bool",
              "name": "sold",
              "type": "bool"
            }
          ],
          "internalType": "struct NFTMarket.MarketItem[]",
          "name": "",
          "type": "tuple[]"
        }
      ],
      "stateMutability": "view",
      "type": "function"
    },
    {
      "inputs": [],
      "name": "getListingPrice",
      "outputs": [
        {
          "internalType": "uint256",
          "name": "",
          "type": "uint256"
        }
      ],
      "stateMutability": "view",
      "type": "function"
    }
  ],
  "bytecode": "0x60806040526658d15e1762800060045534801561001b57600080fd5b506001600055600380546001600160a01b031916331790556133c2806100426000396000f3fe608060405260043610620000795760003560e01c806331629d27116200005457806331629d2714620000e657806358eb2df5146200010d578063c23b139e1462000124578063f064c32e146200013b57600080fd5b80630f08efe0146200007e57806312e8558514620000ae578063202e374014620000ce575b600080fd5b3480156200008b57600080fd5b506200009662000153565b604051620000a5919062000ea5565b60405180910390f35b348015620000bb57600080fd5b50600454604051908152602001620000a5565b348015620000db57600080fd5b506200009662000310565b348015620000f357600080fd5b506200010b6200010536600462000dac565b62000511565b005b6200010b6200011e36600462000d77565b62000586565b6200010b6200013536600462000d4b565b6200082f565b3480156200014857600080fd5b506200009662000a54565b606060006200016160015490565b905060006200016f60025490565b6001546200017e919062000fb6565b90506000808267ffffffffffffffff811115620001ab57634e487b7160e01b600052604160045260246000fd5b604051908082528060200260200182016040528015620001e857816020015b620001d462000c55565b815260200190600190039081620001ca5790505b50905060005b84811015620003075760006005816200020984600162000f9b565b81526020810191909152604001600020600401546001600160a01b03161415620002f25760006200023c82600162000f9b565b600081815260056020818152604092839020835160e0810185528154815260018201546001600160a01b0390811693820193909352600282015494810194909452600381015482166060850152600481015490911660808401529081015460a0830152600681015460ff16151560c0830152855192935091859087908110620002d557634e487b7160e01b600052603260045260246000fd5b6020908102919091010152620002ed60018662000f9b565b945050505b80620002fe8162000fd0565b915050620001ee565b50949350505050565b606060006200031e60015490565b905060008060005b838110156200038a5733600560006200034184600162000f9b565b81526020810191909152604001600020600401546001600160a01b0316141562000375576200037260018462000f9b565b92505b80620003818162000fd0565b91505062000326565b5060008267ffffffffffffffff811115620003b557634e487b7160e01b600052604160045260246000fd5b604051908082528060200260200182016040528015620003f257816020015b620003de62000c55565b815260200190600190039081620003d45790505b50905060005b84811015620003075733600560006200041384600162000f9b565b81526020810191909152604001600020600401546001600160a01b03161415620004fc5760006200044682600162000f9b565b600081815260056020818152604092839020835160e0810185528154815260018201546001600160a01b0390811693820193909352600282015494810194909452600381015482166060850152600481015490911660808401529081015460a0830152600681015460ff16151560c0830152855192935091859087908110620004df57634e487b7160e01b600052603260045260246000fd5b6020908102919091010152620004f760018662000f9b565b945050505b80620005088162000fd0565b915050620003f8565b8484848484604051620005249062000c91565b6200053495949392919062000f3b565b604051809103906000f08015801562000551573d6000803e3d6000fd5b5033600090815260066020526040902080546001600160a01b0319166001600160a01b03929092169190911790555050505050565b60026000541415620005df5760405162461bcd60e51b815260206004820152601f60248201527f5265656e7472616e637947756172643a207265656e7472616e742063616c6c0060448201526064015b60405180910390fd5b600260005580620006335760405162461bcd60e51b815260206004820152601c60248201527f5072696365206d757374206265206174206c65617374203120776569000000006044820152606401620005d6565b6004543414620006925760405162461bcd60e51b8152602060048201526024808201527f5072696365206d75737420626520657175616c20746f206c697374696e6720706044820152637269636560e01b6064820152608401620005d6565b620006a1600180546001019055565b6000620006ad60015490565b6040805160e0810182528281526001600160a01b0387811660208084018281528486018a8152336060870181815260006080890181815260a08a018e815260c08b018381528d8452600598899052928c90209a518b55955160018b018054918b166001600160a01b0319928316179055945160028b0155915160038a018054918a1691861691909117905590516004808a01805492909916919094161790965591519286019290925592516006909401805494151560ff199095169490941790935592516323b872dd60e01b81529182015230602482015260448101869052919250906323b872dd90606401600060405180830381600087803b158015620007b457600080fd5b505af1158015620007c9573d6000803e3d6000fd5b505060408051338152600060208201819052818301879052606082015290518693506001600160a01b038816925084917f045dfa01dcba2b36aba1d3dc4a874f4b0c5d2fbeb8d2c4b34a7d88c8d8f929d1919081900360800190a4505060016000555050565b60026000541415620008845760405162461bcd60e51b815260206004820152601f60248201527f5265656e7472616e637947756172643a207265656e7472616e742063616c6c006044820152606401620005d6565b60026000818155828152600560208190526040909120908101549101543482146200091a576040805162461bcd60e51b81526020600482015260248101919091527f506c65617365207375626d6974207468652061736b696e67207072696365206960448201527f6e206f7264657220746f20636f6d706c657465207468652070757263686173656064820152608401620005d6565b6000838152600560205260408082206003015490516001600160a01b03909116913480156108fc02929091818181858888f1935050505015801562000963573d6000803e3d6000fd5b506040516323b872dd60e01b8152306004820152336024820152604481018290526001600160a01b038516906323b872dd90606401600060405180830381600087803b158015620009b357600080fd5b505af1158015620009c8573d6000803e3d6000fd5b50505060008481526005602052604090206004810180546001600160a01b03191633179055600601805460ff191660011790555062000a0b600280546001019055565b6003546004546040516001600160a01b039092169181156108fc0291906000818181858888f1935050505015801562000a48573d6000803e3d6000fd5b50506001600055505050565b6060600062000a6260015490565b905060008060005b8381101562000ace57336005600062000a8584600162000f9b565b81526020810191909152604001600020600301546001600160a01b0316141562000ab95762000ab660018462000f9b565b92505b8062000ac58162000fd0565b91505062000a6a565b5060008267ffffffffffffffff81111562000af957634e487b7160e01b600052604160045260246000fd5b60405190808252806020026020018201604052801562000b3657816020015b62000b2262000c55565b81526020019060019003908162000b185790505b50905060005b848110156200030757336005600062000b5784600162000f9b565b81526020810191909152604001600020600301546001600160a01b0316141562000c4057600062000b8a82600162000f9b565b600081815260056020818152604092839020835160e0810185528154815260018201546001600160a01b0390811693820193909352600282015494810194909452600381015482166060850152600481015490911660808401529081015460a0830152600681015460ff16151560c083015285519293509185908790811062000c2357634e487b7160e01b600052603260045260246000fd5b602090810291909101015262000c3b60018662000f9b565b945050505b8062000c4c8162000fd0565b91505062000b3c565b6040805160e081018252600080825260208201819052918101829052606081018290526080810182905260a0810182905260c081019190915290565b612372806200101b83390190565b80356001600160a01b038116811462000cb757600080fd5b919050565b600082601f83011262000ccd578081fd5b813567ffffffffffffffff8082111562000ceb5762000ceb62001004565b604051601f8301601f19908116603f0116810190828211818310171562000d165762000d1662001004565b8160405283815286602085880101111562000d2f578485fd5b8360208701602083013792830160200193909352509392505050565b6000806040838503121562000d5e578182fd5b62000d698362000c9f565b946020939093013593505050565b60008060006060848603121562000d8c578081fd5b62000d978462000c9f565b95602085013595506040909401359392505050565b600080600080600060a0868803121562000dc4578081fd5b85359450602086013567ffffffffffffffff8082111562000de3578283fd5b62000df189838a0162000cbc565b955062000e016040890162000c9f565b9450606088013591508082111562000e17578283fd5b62000e2589838a0162000cbc565b9350608088013591508082111562000e3b578283fd5b5062000e4a8882890162000cbc565b9150509295509295909350565b60008151808452815b8181101562000e7e5760208185018101518683018201520162000e60565b8181111562000e905782602083870101525b50601f01601f19169290920160200192915050565b602080825282518282018190526000919060409081850190868401855b8281101562000f2e57815180518552868101516001600160a01b039081168887015286820151878701526060808301518216908701526080808301519091169086015260a0808201519086015260c09081015115159085015260e0909301929085019060010162000ec2565b5091979650505050505050565b85815260a06020820152600062000f5660a083018762000e57565b6001600160a01b0386166040840152828103606084015262000f79818662000e57565b9050828103608084015262000f8f818562000e57565b98975050505050505050565b6000821982111562000fb15762000fb162000fee565b500190565b60008282101562000fcb5762000fcb62000fee565b500390565b600060001982141562000fe75762000fe762000fee565b5060010190565b634e487b7160e01b600052601160045260246000fd5b634e487b7160e01b600052604160045260246000fdfe60806040523480156200001157600080fd5b5060405162002372380380620023728339810160408190526200003491620002dd565b8151829082906200004d90600090602085019062000184565b5080516200006390600190602084019062000184565b505050620000806200007a620000b660201b60201c565b620000ba565b600e80546001600160a01b0319166001600160a01b038516179055600c859055620000ab846200010c565b5050505050620003e9565b3390565b600a80546001600160a01b038381166001600160a01b0319831681179093556040519116919082907f8be0079c531659141344cd1fd0a4f28419497f9722a3daafe3b4186f6b6457e090600090a35050565b600a546001600160a01b031633146200016b5760405162461bcd60e51b815260206004820181905260248201527f4f776e61626c653a2063616c6c6572206973206e6f7420746865206f776e6572604482015260640160405180910390fd5b80516200018090600d90602084019062000184565b5050565b828054620001929062000396565b90600052602060002090601f016020900481019282620001b6576000855562000201565b82601f10620001d157805160ff191683800117855562000201565b8280016001018555821562000201579182015b8281111562000201578251825591602001919060010190620001e4565b506200020f92915062000213565b5090565b5b808211156200020f576000815560010162000214565b600082601f8301126200023b578081fd5b81516001600160401b0380821115620002585762000258620003d3565b604051601f8301601f19908116603f01168101908282118183101715620002835762000283620003d3565b816040528381526020925086838588010111156200029f578485fd5b8491505b83821015620002c25785820183015181830184015290820190620002a3565b83821115620002d357848385830101525b9695505050505050565b600080600080600060a08688031215620002f5578081fd5b855160208701519095506001600160401b038082111562000314578283fd5b6200032289838a016200022a565b604089015190965091506001600160a01b038216821462000341578283fd5b60608801519194508082111562000356578283fd5b6200036489838a016200022a565b935060808801519150808211156200037a578283fd5b5062000389888289016200022a565b9150509295509295909350565b600181811c90821680620003ab57607f821691505b60208210811415620003cd57634e487b7160e01b600052602260045260246000fd5b50919050565b634e487b7160e01b600052604160045260246000fd5b611f7980620003f96000396000f3fe6080604052600436106101665760003560e01c806355f804b3116100d157806395d89b411161008a578063c87b56dd11610064578063c87b56dd146103ef578063d547cfb71461040f578063e985e9c514610424578063f2fde38b1461046d57600080fd5b806395d89b411461039a578063a22cb465146103af578063b88d4fde146103cf57600080fd5b806355f804b3146102ec5780636352211e1461030c57806370a082311461032c578063715018a61461034c5780638d859f3e146103615780638da5cb5b1461037c57600080fd5b80632f745c59116101235780632f745c591461025b57806332cb6b0c1461027b5780633b4b1381146102915780633ccfd60b146102a457806342842e0e146102ac5780634f6ccce7146102cc57600080fd5b806301ffc9a71461016b57806306fdde03146101a0578063081812fc146101c2578063095ea7b3146101fa57806318160ddd1461021c57806323b872dd1461023b575b600080fd5b34801561017757600080fd5b5061018b610186366004611bda565b61048d565b60405190151581526020015b60405180910390f35b3480156101ac57600080fd5b506101b56104b8565b6040516101979190611d08565b3480156101ce57600080fd5b506101e26101dd366004611c58565b61054a565b6040516001600160a01b039091168152602001610197565b34801561020657600080fd5b5061021a610215366004611bb1565b6105e4565b005b34801561022857600080fd5b506008545b604051908152602001610197565b34801561024757600080fd5b5061021a610256366004611ac3565b6106fa565b34801561026757600080fd5b5061022d610276366004611bb1565b61072b565b34801561028757600080fd5b5061022d600c5481565b61021a61029f366004611c58565b6107c1565b61021a6108cb565b3480156102b857600080fd5b5061021a6102c7366004611ac3565b6109d2565b3480156102d857600080fd5b5061022d6102e7366004611c58565b6109ed565b3480156102f857600080fd5b5061021a610307366004611c12565b610a8e565b34801561031857600080fd5b506101e2610327366004611c58565b610acb565b34801561033857600080fd5b5061022d610347366004611a77565b610b42565b34801561035857600080fd5b5061021a610bc9565b34801561036d57600080fd5b5061022d662386f26fc1000081565b34801561038857600080fd5b50600a546001600160a01b03166101e2565b3480156103a657600080fd5b506101b5610bff565b3480156103bb57600080fd5b5061021a6103ca366004611b77565b610c0e565b3480156103db57600080fd5b5061021a6103ea366004611afe565b610c19565b3480156103fb57600080fd5b506101b561040a366004611c58565b610c51565b34801561041b57600080fd5b506101b5610d2c565b34801561043057600080fd5b5061018b61043f366004611a91565b6001600160a01b03918216600090815260056020908152604080832093909416825291909152205460ff1690565b34801561047957600080fd5b5061021a610488366004611a77565b610dba565b60006001600160e01b0319821663780e9d6360e01b14806104b257506104b282610e55565b92915050565b6060600080546104c790611e81565b80601f01602080910402602001604051908101604052809291908181526020018280546104f390611e81565b80156105405780601f1061051557610100808354040283529160200191610540565b820191906000526020600020905b81548152906001019060200180831161052357829003601f168201915b5050505050905090565b6000818152600260205260408120546001600160a01b03166105c85760405162461bcd60e51b815260206004820152602c60248201527f4552433732313a20617070726f76656420717565727920666f72206e6f6e657860448201526b34b9ba32b73a103a37b5b2b760a11b60648201526084015b60405180910390fd5b506000908152600460205260409020546001600160a01b031690565b60006105ef82610acb565b9050806001600160a01b0316836001600160a01b0316141561065d5760405162461bcd60e51b815260206004820152602160248201527f4552433732313a20617070726f76616c20746f2063757272656e74206f776e656044820152603960f91b60648201526084016105bf565b336001600160a01b03821614806106795750610679813361043f565b6106eb5760405162461bcd60e51b815260206004820152603860248201527f4552433732313a20617070726f76652063616c6c6572206973206e6f74206f7760448201527f6e6572206e6f7220617070726f76656420666f7220616c6c000000000000000060648201526084016105bf565b6106f58383610ea5565b505050565b6107043382610f13565b6107205760405162461bcd60e51b81526004016105bf90611da2565b6106f583838361100a565b600061073683610b42565b82106107985760405162461bcd60e51b815260206004820152602b60248201527f455243373231456e756d657261626c653a206f776e657220696e646578206f7560448201526a74206f6620626f756e647360a81b60648201526084016105bf565b506001600160a01b03919091166000908152600660209081526040808320938352929052205490565b60006107cc600b5490565b600c549091506107dc8383611df3565b111561081d5760405162461bcd60e51b815260206004820152601060248201526f4e6f7420656e6f756768204e4654732160801b60448201526064016105bf565b61082e82662386f26fc10000611e1f565b3410156108885760405162461bcd60e51b815260206004820152602260248201527f4e6f7420656e6f75676820657468657220746f207075726368617365204e4654604482015261399760f11b60648201526084016105bf565b60005b828110156106f557600061089e600b5490565b90506108aa33826111b5565b6108b8600b80546001019055565b50806108c381611ebc565b91505061088b565b600a546001600160a01b031633146108f55760405162461bcd60e51b81526004016105bf90611d6d565b47806109435760405162461bcd60e51b815260206004820152601960248201527f4e6f206574686572206c65667420746f2077697468647261770000000000000060448201526064016105bf565b604051600090339083908381818185875af1925050503d8060008114610985576040519150601f19603f3d011682016040523d82523d6000602084013e61098a565b606091505b50509050806109ce5760405162461bcd60e51b815260206004820152601060248201526f2a3930b739b332b9103330b4b632b21760811b60448201526064016105bf565b5050565b6106f583838360405180602001604052806000815250610c19565b60006109f860085490565b8210610a5b5760405162461bcd60e51b815260206004820152602c60248201527f455243373231456e756d657261626c653a20676c6f62616c20696e646578206f60448201526b7574206f6620626f756e647360a01b60648201526084016105bf565b60088281548110610a7c57634e487b7160e01b600052603260045260246000fd5b90600052602060002001549050919050565b600a546001600160a01b03163314610ab85760405162461bcd60e51b81526004016105bf90611d6d565b80516109ce90600d90602084019061194c565b6000818152600260205260408120546001600160a01b0316806104b25760405162461bcd60e51b815260206004820152602960248201527f4552433732313a206f776e657220717565727920666f72206e6f6e657869737460448201526832b73a103a37b5b2b760b91b60648201526084016105bf565b60006001600160a01b038216610bad5760405162461bcd60e51b815260206004820152602a60248201527f4552433732313a2062616c616e636520717565727920666f7220746865207a65604482015269726f206164647265737360b01b60648201526084016105bf565b506001600160a01b031660009081526003602052604090205490565b600a546001600160a01b03163314610bf35760405162461bcd60e51b81526004016105bf90611d6d565b610bfd60006111cf565b565b6060600180546104c790611e81565b6109ce338383611221565b610c233383610f13565b610c3f5760405162461bcd60e51b81526004016105bf90611da2565b610c4b848484846112f0565b50505050565b6000818152600260205260409020546060906001600160a01b0316610cd05760405162461bcd60e51b815260206004820152602f60248201527f4552433732314d657461646174613a2055524920717565727920666f72206e6f60448201526e3732bc34b9ba32b73a103a37b5b2b760891b60648201526084016105bf565b6000610cda611323565b90506000815111610cfa5760405180602001604052806000815250610d25565b80610d0484611332565b604051602001610d15929190611c9c565b6040516020818303038152906040525b9392505050565b600d8054610d3990611e81565b80601f0160208091040260200160405190810160405280929190818152602001828054610d6590611e81565b8015610db25780601f10610d8757610100808354040283529160200191610db2565b820191906000526020600020905b815481529060010190602001808311610d9557829003601f168201915b505050505081565b600a546001600160a01b03163314610de45760405162461bcd60e51b81526004016105bf90611d6d565b6001600160a01b038116610e495760405162461bcd60e51b815260206004820152602660248201527f4f776e61626c653a206e6577206f776e657220697320746865207a65726f206160448201526564647265737360d01b60648201526084016105bf565b610e52816111cf565b50565b60006001600160e01b031982166380ac58cd60e01b1480610e8657506001600160e01b03198216635b5e139f60e01b145b806104b257506301ffc9a760e01b6001600160e01b03198316146104b2565b600081815260046020526040902080546001600160a01b0319166001600160a01b0384169081179091558190610eda82610acb565b6001600160a01b03167f8c5be1e5ebec7d5bd14f71427d1e84f3dd0314c0f7b2291e5b200ac8c7c3b92560405160405180910390a45050565b6000818152600260205260408120546001600160a01b0316610f8c5760405162461bcd60e51b815260206004820152602c60248201527f4552433732313a206f70657261746f7220717565727920666f72206e6f6e657860448201526b34b9ba32b73a103a37b5b2b760a11b60648201526084016105bf565b6000610f9783610acb565b9050806001600160a01b0316846001600160a01b03161480610fd25750836001600160a01b0316610fc78461054a565b6001600160a01b0316145b8061100257506001600160a01b0380821660009081526005602090815260408083209388168352929052205460ff165b949350505050565b826001600160a01b031661101d82610acb565b6001600160a01b0316146110855760405162461bcd60e51b815260206004820152602960248201527f4552433732313a207472616e73666572206f6620746f6b656e2074686174206960448201526839903737ba1037bbb760b91b60648201526084016105bf565b6001600160a01b0382166110e75760405162461bcd60e51b8152602060048201526024808201527f4552433732313a207472616e7366657220746f20746865207a65726f206164646044820152637265737360e01b60648201526084016105bf565b6110f283838361144c565b6110fd600082610ea5565b6001600160a01b0383166000908152600360205260408120805460019290611126908490611e3e565b90915550506001600160a01b0382166000908152600360205260408120805460019290611154908490611df3565b909155505060008181526002602052604080822080546001600160a01b0319166001600160a01b0386811691821790925591518493918716917fddf252ad1be2c89b69c2b068fc378daa952ba7f163c4a11628f55a4df523b3ef91a4505050565b6109ce828260405180602001604052806000815250611504565b600a80546001600160a01b038381166001600160a01b0319831681179093556040519116919082907f8be0079c531659141344cd1fd0a4f28419497f9722a3daafe3b4186f6b6457e090600090a35050565b816001600160a01b0316836001600160a01b031614156112835760405162461bcd60e51b815260206004820152601960248201527f4552433732313a20617070726f766520746f2063616c6c65720000000000000060448201526064016105bf565b6001600160a01b03838116600081815260056020908152604080832094871680845294825291829020805460ff191686151590811790915591519182527f17307eab39ab6107e8899845ad3d59bd9653f200f220920489ca2b5937696c31910160405180910390a3505050565b6112fb84848461100a565b61130784848484611537565b610c4b5760405162461bcd60e51b81526004016105bf90611d1b565b6060600d80546104c790611e81565b6060816113565750506040805180820190915260018152600360fc1b602082015290565b8160005b8115611380578061136a81611ebc565b91506113799050600a83611e0b565b915061135a565b60008167ffffffffffffffff8111156113a957634e487b7160e01b600052604160045260246000fd5b6040519080825280601f01601f1916602001820160405280156113d3576020820181803683370190505b5090505b8415611002576113e8600183611e3e565b91506113f5600a86611ed7565b611400906030611df3565b60f81b81838151811061142357634e487b7160e01b600052603260045260246000fd5b60200101906001600160f81b031916908160001a905350611445600a86611e0b565b94506113d7565b6001600160a01b0383166114a7576114a281600880546000838152600960205260408120829055600182018355919091527ff3f7a9fe364faab93b216da50a3214154f22a0a2b415b23a84c8169e8b636ee30155565b6114ca565b816001600160a01b0316836001600160a01b0316146114ca576114ca8382611644565b6001600160a01b0382166114e1576106f5816116e1565b826001600160a01b0316826001600160a01b0316146106f5576106f582826117ba565b61150e83836117fe565b61151b6000848484611537565b6106f55760405162461bcd60e51b81526004016105bf90611d1b565b60006001600160a01b0384163b1561163957604051630a85bd0160e11b81526001600160a01b0385169063150b7a029061157b903390899088908890600401611ccb565b602060405180830381600087803b15801561159557600080fd5b505af19250505080156115c5575060408051601f3d908101601f191682019092526115c291810190611bf6565b60015b61161f573d8080156115f3576040519150601f19603f3d011682016040523d82523d6000602084013e6115f8565b606091505b5080516116175760405162461bcd60e51b81526004016105bf90611d1b565b805181602001fd5b6001600160e01b031916630a85bd0160e11b149050611002565b506001949350505050565b6000600161165184610b42565b61165b9190611e3e565b6000838152600760205260409020549091508082146116ae576001600160a01b03841660009081526006602090815260408083208584528252808320548484528184208190558352600790915290208190555b5060009182526007602090815260408084208490556001600160a01b039094168352600681528383209183525290812055565b6008546000906116f390600190611e3e565b6000838152600960205260408120546008805493945090928490811061172957634e487b7160e01b600052603260045260246000fd5b90600052602060002001549050806008838154811061175857634e487b7160e01b600052603260045260246000fd5b600091825260208083209091019290925582815260099091526040808220849055858252812055600880548061179e57634e487b7160e01b600052603160045260246000fd5b6001900381819060005260206000200160009055905550505050565b60006117c583610b42565b6001600160a01b039093166000908152600660209081526040808320868452825280832085905593825260079052919091209190915550565b6001600160a01b0382166118545760405162461bcd60e51b815260206004820181905260248201527f4552433732313a206d696e7420746f20746865207a65726f206164647265737360448201526064016105bf565b6000818152600260205260409020546001600160a01b0316156118b95760405162461bcd60e51b815260206004820152601c60248201527f4552433732313a20746f6b656e20616c7265616479206d696e7465640000000060448201526064016105bf565b6118c56000838361144c565b6001600160a01b03821660009081526003602052604081208054600192906118ee908490611df3565b909155505060008181526002602052604080822080546001600160a01b0319166001600160a01b03861690811790915590518392907fddf252ad1be2c89b69c2b068fc378daa952ba7f163c4a11628f55a4df523b3ef908290a45050565b82805461195890611e81565b90600052602060002090601f01602090048101928261197a57600085556119c0565b82601f1061199357805160ff19168380011785556119c0565b828001600101855582156119c0579182015b828111156119c05782518255916020019190600101906119a5565b506119cc9291506119d0565b5090565b5b808211156119cc57600081556001016119d1565b600067ffffffffffffffff80841115611a0057611a00611f17565b604051601f8501601f19908116603f01168101908282118183101715611a2857611a28611f17565b81604052809350858152868686011115611a4157600080fd5b858560208301376000602087830101525050509392505050565b80356001600160a01b0381168114611a7257600080fd5b919050565b600060208284031215611a88578081fd5b610d2582611a5b565b60008060408385031215611aa3578081fd5b611aac83611a5b565b9150611aba60208401611a5b565b90509250929050565b600080600060608486031215611ad7578081fd5b611ae084611a5b565b9250611aee60208501611a5b565b9150604084013590509250925092565b60008060008060808587031215611b13578081fd5b611b1c85611a5b565b9350611b2a60208601611a5b565b925060408501359150606085013567ffffffffffffffff811115611b4c578182fd5b8501601f81018713611b5c578182fd5b611b6b878235602084016119e5565b91505092959194509250565b60008060408385031215611b89578182fd5b611b9283611a5b565b915060208301358015158114611ba6578182fd5b809150509250929050565b60008060408385031215611bc3578182fd5b611bcc83611a5b565b946020939093013593505050565b600060208284031215611beb578081fd5b8135610d2581611f2d565b600060208284031215611c07578081fd5b8151610d2581611f2d565b600060208284031215611c23578081fd5b813567ffffffffffffffff811115611c39578182fd5b8201601f81018413611c49578182fd5b611002848235602084016119e5565b600060208284031215611c69578081fd5b5035919050565b60008151808452611c88816020860160208601611e55565b601f01601f19169290920160200192915050565b60008351611cae818460208801611e55565b835190830190611cc2818360208801611e55565b01949350505050565b6001600160a01b0385811682528416602082015260408101839052608060608201819052600090611cfe90830184611c70565b9695505050505050565b602081526000610d256020830184611c70565b60208082526032908201527f4552433732313a207472616e7366657220746f206e6f6e20455243373231526560408201527131b2b4bb32b91034b6b83632b6b2b73a32b960711b606082015260800190565b6020808252818101527f4f776e61626c653a2063616c6c6572206973206e6f7420746865206f776e6572604082015260600190565b60208082526031908201527f4552433732313a207472616e736665722063616c6c6572206973206e6f74206f6040820152701ddb995c881b9bdc88185c1c1c9bdd9959607a1b606082015260800190565b60008219821115611e0657611e06611eeb565b500190565b600082611e1a57611e1a611f01565b500490565b6000816000190483118215151615611e3957611e39611eeb565b500290565b600082821015611e5057611e50611eeb565b500390565b60005b83811015611e70578181015183820152602001611e58565b83811115610c4b5750506000910152565b600181811c90821680611e9557607f821691505b60208210811415611eb657634e487b7160e01b600052602260045260246000fd5b50919050565b6000600019821415611ed057611ed0611eeb565b5060010190565b600082611ee657611ee6611f01565b500690565b634e487b7160e01b600052601160045260246000fd5b634e487b7160e01b600052601260045260246000fd5b634e487b7160e01b600052604160045260246000fd5b6001600160e01b031981168114610e5257600080fdfea2646970667358221220a679ee65b077a28440fff1787f042bd206ecb18edb68ba3cc89647598b1d192764736f6c63430008040033a26469706673582212209c3cc6e9339dfeaaff417011545e3b30d5db0801e4d3bdbfcbe508a6b997727464736f6c63430008040033",
  "linkReferences": {},
  "deployedLinkReferences": {}
}